:020000040800F2
:100000004006002005010008F529000859270008CE
:10001000F1290008A10400088D310008000000004B
:100020000000000000000000000000002D2B000870
:10003000F506000800000000F92900082F2B000831
:100040001F0100081F0100081F0100081F01000810
:100050001F0100081F0100081F0100081F01000800
:100060001F0100081F0100081F0100081F010008F0
:100070001F0100081F0100081F0100081F010008E0
:100080001F0100081F0100081F0100081F010008D0
:100090001F0100081F0100081F0100081F010008C0
:1000A0001F010008BD2B00081F0100081F010008E8
:1000B0001F0100081F010008000000001F010008C8
:1000C0001F01000800000000000000001F010008E0
:1000D000000000004D3000087D31000800000000E5
:1000E0001F0100081F0100081F010008DFF810D0E1
:1000F00000F0F2F80048004745320008AFF30080F6
:10010000400600200648804706480047FEE7FEE715
:10011000FEE7FEE7FEE7FEE7FEE7FEE7FEE7FEE7B7
:10012000BB2B0008ED000008D2B201E000F8012B63
:10013000491EFBD270470022F6E710B513460A4667
:1001400004461946FFF7F0FF204610BD80EA010281
:1001500010B502F00043400022D04A001FD0010E2B
:1001600001EB1261C0F35600C2F3560240F40000E6
:1001700042F40002A0FB022000047F39140400D0E6
:10018000401C50EA124001D44000491EC2B20C0685
:1001900004EBD010401C4008802A02D003E000206D
:1001A00010BD20F00100002900DA0020184310BD26
:1001B00030B480EA010202F0004530F0004221F044
:1001C000004013D090B1C30DD40DC2F31601C0F39B
:1001D0001600E41A41F4000140F400027D3491421B
:1001E00001D3641C00E04900002C02DA30BC00207E
:1001F00070474FF400000023914201D3891A034352
:1002000040084FEA4101F7D151B1914202D14FF07C
:10021000004105E002D24FF0010101E06FF0010161
:1002200003EBC450284430BC00F01EB896230022D3
:10023000114600F022B800F0004220F00040C10D4D
:10024000C0F3160040F400007F2901DA0020704757
:10025000962903DCC1F19601C84001E09639884037
:10026000002AF4D0404270470029A8BF7047401CC4
:10027000490008BF20F00100704710B4B0FA80FCBC
:1002800000FA0CF050EA010404BF10BC704749B1F9
:10029000CCF1200421FA04F411FA0CF118BF012169
:1002A00021430843A3EB0C01CB1D4FEA00614FEA49
:1002B000102042BF002010BC704700EBC350104418
:1002C0000029A4BF10BC7047401C490008BF20F0A3
:1002D000010010BC70470000064C074D06E0E068C6
:1002E00040F0010394E8070098471034AC42F6D37D
:1002F000FFF700FF8C350008AC35000870B50446E8
:1003000000252068806800F0010018B3206880682C
:1003100020F001002168886000F0ACFF054613E082
:1003200000F0A8FF401B02280ED92068806800F06A
:10033000010048B1A06A40F01000A062E06A40F0FD
:100340000100E062012070BD2068806800F00100BB
:100350000028E5D10020F6E738B504460025002046
:1003600000902068806800F0010078BB20688068F9
:1003700040F0010021688860194800681949B0FB05
:10038000F1F0009002E00098401E009000980028D4
:10039000F9D100F06FFF054619E000F06BFF401B3C
:1003A000022814D92068806800F0010078B9A06A9A
:1003B00040F01000A062E06A40F00100E06200BF7F
:1003C000002084F8240000BF012038BD05E020682B
:1003D000806800F001000028DFD00020F5E7000071
:1003E0001800002040420F002DE9F04188B0064679
:1003F0000C46174620216846FFF79DFE0025A846BB
:100400001C2F02DD08B0BDE8F081AA208DF80000A5
:1004100005208DF801008DF802600C208DF8030096
:1004200020788DF8040060788DF80500A0788DF8AC
:100430000600E0788DF8070020798DF808006079D3
:100440008DF80900A0798DF80A00E0798DF80B008D
:10045000207A8DF80C00607A8DF80D00A07A8DF866
:100460000E00E07A8DF80F00002009E01DF8001062
:100470002944CDB208EB050101F0FF08411CC8B2C8
:100480001028F3DB8DF810508DF81180FF23122215
:100490006946024802F0F6F800BFB3E730010020D9
:1004A00000BFFEE710B50E48006820F0F0000C49D0
:1004B00008600846006840F0300008600022022111
:1004C000074800F0D1FE1E2000F02CFD0122022181
:1004D000034800F0C9FE1E2002F086FE10BD000099
:1004E000000C014010B500F0ABF800F001F810BDB1
:1004F00010B500241D48006820F00F001B4908605B
:100500000846006840F00800086004E0012002F09E
:100510006BFE601CC4B20121144800F09DFE08B1BE
:10052000F02CF3DBF02C01DD012010BD00240F487E
:10053000006820F00F000D4908600846006840F090
:100540000800086004E0012002F04EFE601CC4B206
:100550000121064800F080FE08B9F02CF3DBF02CF6
:1005600001DD0220E1E70020DFE70000000C014090
:100570002DE9F0410024FFF7B5FFCC2000F080F812
:10058000442000F07DF800BF00F018F8FF28FBD1F0
:10059000FFF7A8FFCC2000F073F8BE2000F070F841
:1005A00000F00CF8064600F009F8054646EA052476
:1005B000271104F00F082046BDE8F08170B5002433
:1005C000002537E01D48006820F00F001B49086037
:1005D0000846006840F00300086000220121174827
:1005E00000F042FE022002F0FFFD012211461348F6
:1005F00000F03AFE1148006820F00F000F49086033
:100600000846006840F0080008600A2002F0ECFD8F
:1006100064100121094800F01FFE08B144F0800475
:100620003C2002F0E1FD01221146044800F01CFECE
:10063000681CC5B2082DC5DB204670BD000C01400A
:1006400010B50E48006820F00F000C4908600846FD
:10065000006840F00300086000220121074800F014
:1006600003FE40F2EE2002F0BFFD012211460348D6
:1006700000F0FAFD0F2002F0B7FD10BD000C0140A4
:1006800070B5044600251A48006820F00F0018498C
:1006900008600846006840F00300086000BF23E0DF
:1006A00000220121124800F0DFFD022002F09CFD33
:1006B00004F0010028B1012211460D4800F0D4FDDC
:1006C00004E0002201210A4800F0CEFD3C2002F0A7
:1006D0008BFD01221146064800F0C6FD6410022081
:1006E00002F082FD681CC5B2082DD9DB002070BD68
:1006F000000C0140704772B600BFFEE7F8B5044633
:1007000000260020009000BF94F82400012801D1A9
:100710000220F8BD012084F8240000BF2046FFF726
:10072000EDFD0646002E6CD1A06A20F4885040F002
:100730000200A062022000F079FE35490968B1FB91
:10074000F0F04000009002E00098401E00900098F9
:100750000028F9D12046FFF7FFFD2068806840F0AF
:1007600008002168886000F085FD054616E000F06D
:1007700081FD401B0A2811D92068806800F008001C
:1007800060B1A06A20F0020040F01000A06200BF3B
:10079000002084F8240000BF0120BAE720688068A8
:1007A00000F008000028E2D12068806840F00400D2
:1007B0002168886000F05EFD054616E000F05AFDF5
:1007C000401B0A2811D92068806800F0040060B13D
:1007D000A06A20F0020040F01000A06200BF0020DC
:1007E00084F8240000BF012093E72068806800F0AF
:1007F00004000028E2D1A06A20F0020040F00100CD
:10080000A06200BF002084F8240000BF304680E7CB
:100810001800002038B5024600230020009000BFD9
:1008200092F82400012801D1022038BD012082F86D
:10083000240000BF4868072812D21068406B0C796A
:10084000641E04EB84051F24AC40A0430D796D1E8B
:1008500005EB85050C68AC4020431468606327E015
:1008600048680D2812D21068006B0C79E41F04EB65
:1008700084051F24AC40A0430D79ED1F05EB8505D1
:100880000C68AC4020431468206311E01068C06A13
:100890000C790D3C04EB84051F24AC40A0430D797A
:1008A0000D3D05EB85050C68AC4020431468E06203
:1008B00008680A2812D31068C0680C780A3C04EB58
:1008C00044050724AC40A0430D780A3D05EB4505DF
:1008D0008C68AC4020431468E0600FE01068006949
:1008E0000C7804EB44050724AC40A0430D7805EBDD
:1008F00045058C68AC4020431468206108681028C6
:1009000002D00868112827D1174C1068A0421ED1C8
:100910001068806800F40000F0B91068806840F446
:1009200000001468A0600868102815D10F480068FE
:100930000F4CB0FBF4F000EB80004000009002E0B0
:100940000098401E009000980028F9D104E0906AB9
:1009500040F020009062012300BF002082F82400B4
:1009600000BF184661E70000002401401800002085
:1009700040420F0001460868C06C70472DE9F04105
:100980000446002700250026A84614B90120BDE82A
:10099000F081A06810B1207D00B100BFA06A30B91D
:1009A0000020E06284F82400204600F089F8204608
:1009B000FFF7A4FC0746A06A00F01000002873D1DE
:1009C000002F71D1A06A20F4885040F00200A0628C
:1009D000E16960680843217B40EA41000643A06862
:1009E000B0F5807F02D0A068012802D14FF480705A
:1009F00000E000200543207D012811D1207B38B97B
:100A0000A069401E4FF4006141EA4030054307E011
:100A1000A06A40F02000A062E06A40F00100E062BD
:100A20002068406820F469402843216848602068B5
:100A3000806821490840304321688860A068B0F58B
:100A4000807F02D0A068012802D14FF4807000E0BE
:100A50000020B0F5807F03D1208A401E4FEA005865
:100A60002068C06A20F4700040EA08002168C8626B
:100A70002068806811490840B04208D10020E06237
:100A8000A06A20F0020040F00100A06211E0A06A1C
:100A900020F0020040F01000A062E06A40F0010087
:100AA000E062012705E0FFE7A06A40F01000A062C5
:100AB000012738466BE70000FDF7E1FFFE0E1FFF40
:100AC00010B586B004460020029003900490059073
:100AD00013492068884221D100BF1248806940F440
:100AE0000070104988610846806900F40070019028
:100AF00000BF00BF00BF0846806940F00400886165
:100B00000846806900F00400019000BF00BF032088
:100B10000290039002A9044800F018FA06B010BD34
:100B2000002401400010024000080140F8B50446CE
:100B30000D46002600200090002700F09BFB064693
:100B40002068806800F4807050B1A06A40F02000F6
:100B5000A06200BF002084F8240000BF0120F8BD7F
:100B60002068406800F4807020BB2068C06A00F4F0
:100B70007000F8B917E0681CA8B125B100F07AFB45
:100B8000801BA8420FD92068006800F0020050B90D
:100B9000A06A40F00400A06200BF002084F8240096
:100BA00000BF0320DBE72068006800F00200002897
:100BB000E1D053E0022000F039FC38490968B1FB6C
:100BC000F0F021680969364A114091B92168C96875
:100BD0009211114069B921680969324A114031B94D
:100BE0002168C9689211114009B9142117E029211F
:100BF00015E0216809692B4A114021B92168C968AB
:100C00009211114041B121680969274A114029B95F
:100C10002168C968114009B9542100E0FC2100FB9A
:100C200001F718E0681C98B125B100F023FB801B88
:100C3000A8420DD90098B8420AD2A06A40F0040038
:100C4000A06200BF002084F8240000BF032086E7D4
:100C50000098401C00900098B842E3D36FF0120057
:100C600021680860A06A40F40070A0622068806873
:100C700000F46020B0F5602F0DD1207B58B9A06A38
:100C800020F48070A062A06A00F4805018B9A06AB5
:100C900040F00100A062002061E700001800002081
:100CA00024499224922449124992240070B50446A2
:100CB000002500BF94F82400012801D1022070BD56
:100CC000012084F8240000BF2046FFF745FB0546BD
:100CD000002D77D1A06A40F20121884340F4807052
:100CE000A0623C492068884208D13B48006800F473
:100CF000702008B9012002E0002000E0012078B156
:100D0000A06A20F48010A0622068406800F480602F
:100D100000B3A06A20F4005040F48050A06219E0B3
:100D2000A06A40F48010A0622B49091F2068884205
:100D300003D028492068884204D12748006800F47D
:100D4000806000E0002028B1A06A20F4005040F448
:100D50008050A062A06A00F4805020B1E06A20F0C8
:100D60000600E06201E00020E06200BF002084F89D
:100D7000240000BFC01E216808602068806800F45D
:100D80006020B0F5602F16D112492068884208D142
:100D90001148006800F4702008B9012002E000202A
:100DA00000E0012038B12068806840F4A00021688C
:100DB00088600CE006E02068806840F480102168BC
:100DC000886004E000BF002084F8240000BF2846AB
:100DD00075E70000002801400424014070B5044676
:100DE000002500BF94F82400012801D1022070BD25
:100DF000012084F8240000BF2046FFF77FFA054653
:100E00002DB9A06A20F4885040F00100A06200BF14
:100E1000002084F8240000BF2846E8E701460022AD
:100E200091F82100022808D00420886300BF002028
:100E300081F8200000BF012070470868006820F09A
:100E40000E000B6818600868006820F001000B684D
:100E5000186091F8403001209840CB6B5860012019
:100E600081F8210000BF002081F8200000BF10465B
:100E7000E2E7000070B50446002594F8210002283E
:100E800003D00420A063012548E02068006820F01A
:100E90000E00216808602068006820F001002168C9
:100EA00008601F492068884201D1012026E01C49C2
:100EB00014312068884201D110201FE018492831E0
:100EC0002068884201D1801518E015493C3120681E
:100ED000884201D1801411E01149503120688842C4
:100EE00002D14FF4803009E00D4964312068884216
:100EF00002D14FF4801001E04FF0807008490839AA
:100F00004860012084F8210000BF002084F8200000
:100F100000BF606B10B12046616B8847284670BDEA
:100F20000800024070B5044600F0A4F906462546C4
:100F3000681C10B104480078054400BF00F09AF91D
:100F4000801BA842FAD370BD140000202DE9F84799
:100F500003460022944666E14FF0010808FA02F4C5
:100F6000D1F8008008EA0400A0427DD1DFF8CCA2CD
:100F7000D1F80480A8EB0A09D0453AD014DCB8F1C6
:100F8000030F50D009DCB8F1000F31D0B8F1010FD8
:100F90001CD0B8F1020F49D120E0B8F1110F18D0E0
:100FA000B8F1120F42D11EE0B9F5881F25D006DC3A
:100FB000B9F5803F20D0B9F5801F37D11AE0B9F5D7
:100FC000001F18D0B9F5041F30D117E0D1F80CC0BC
:100FD0002DE0D1F80C8008F1040C28E0D1F80C8049
:100FE00008F1080C23E0D1F80C8008F10C0C1EE08D
:100FF00000BF00BF00BF00BF00BF00BFD1F8088026
:10100000B8F1000F02D14FF0040C0BE0D1F80880CA
:10101000B8F1010F03D14FF0080C1C6102E04FF052
:10102000080C5C6103E04FF0000C00E000BF00BF63
:10103000FF2801D8984601E003F104084646FF283E
:1010400002D84FEA820803E0A2F108084FEA8808B4
:101050004746D6F800804FF00F0909FA07F928EA49
:1010600009080CFA07F900E085E048EA0908C6F823
:101070000080D1F8048008F08058B8F1805F7AD100
:1010800000BFDFF8BC81D8F8188048F00108DFF80D
:10109000B091C9F81880C846D8F8188008F001083F
:1010A000CDF8008000BF00BF4FEAB9384FEA92097F
:1010B00058F829504FEA82784FEA18794FF00F0814
:1010C00008FA09F825EA0805DFF87881434502D1D6
:1010D0004FF000080FE0DFF87081434502D14FF078
:1010E000010808E0DFF86481434502D14FF00208AF
:1010F00001E04FF003084FEA82794FEA197908FAC4
:1011000009F848EA0505DFF848814FEA920948F8EE
:101110002950D1F8048008F48038B8F5803F0AD10E
:10112000DFF83081D8F8008048EA0008DFF8249121
:10113000C9F8008009E0DFF81C81D8F8008028EAAF
:101140000008DFF81091C9F80080D1F8048008F495
:101150000038B8F5003F0FD1DFF8F88008F1040837
:10116000D8F8008048EA0008DFF8E89009F104099F
:10117000C9F800800EE055E0DFF8D88008F10408D7
:10118000D8F8008028EA0008DFF8C89009F10409BF
:10119000C9F80080D1F8048008F48018B8F5801FE1
:1011A0000ED1DFF8B08008F10808D8F8008048EACE
:1011B0000008DFF8A09009F10809C9F800800DE0E7
:1011C000DFF8908008F10808D8F8008028EA0008C5
:1011D000DFF8809009F10809C9F80080D1F804808F
:1011E00008F40018B8F5001F0ED1DFF8688008F188
:1011F0000C08D8F8008048EA0008DFF8589009F198
:101200000C09C9F800800DE0DFF8488008F10C08EF
:10121000D8F8008028EA0008DFF8389009F10C09B6
:10122000C9F80080521CD1F8008028FA02F8B8F101
:10123000000F7FF491AEBDE8F887000000001110A8
:101240000010024000080140000C01400010014065
:101250000800014000040140024693680B400BB1B6
:10126000012000E0002070470AB1016101E00B0499
:101270000361704701480068704700000C000020BF
:101280000348006803490978084401490860704729
:101290000C0000201400002010B50848006840F041
:1012A000100006490860032000F0ACF8022000F0AE
:1012B00007F800F02BF8002010BD000000200240CD
:1012C00070B504460E4800784FF47A71B1FBF0F027
:1012D0000C490968B1FBF0F5284600F033FD08B170
:1012E000012070BD102C07D200222146501E00F0B4
:1012F0004BF80548046001E00120F2E70020F0E728
:1013000014000020180000201000002008B500BFC5
:101310001348806940F001001149886108468069DE
:1013200000F00100009000BF00BF00BF0846C06988
:1013300040F08050C8610846C06900F080500090BD
:1013400000BF00BF052000F05DF800BF05494868F8
:1013500020F0E06040F00070486000BF08BD000071
:10136000001002400000014001460846002809DB49
:1013700000F01F0301229A4043099B0003F1E02380
:10138000C3F8002100BF70472DE9F05F80460D468D
:101390001646002701F0FCFE074639462A4633462A
:1013A00001F00700C0F1070ABAF1040F02D94FF0AB
:1013B000040A01E0C0F1070AD14600F1040ABAF1BB
:1013C000070F02D24FF0000A01E0A0F1030AD44651
:1013D0004FF0010A0AFA09FAAAF1010A0AEA020A16
:1013E0000AFA0CFA4FF0010B0BFA0CFBABF1010BF4
:1013F0000BEA030B4AEA0B042146404601F0D0FEFB
:10140000BDE8F09F00BF00F00702064B19684FF6D9
:10141000FF031940044B0B4343EA0221014B1960BF
:1014200000BF70470CED00E00000FA052DE9F04325
:1014300085B006463BA30FCB01AC0FC43DA00068AE
:1014400000904FF00008002500270024A146012E3F
:1014500030D0022E55D0102E5ED137484468006837
:1014600000F0807000B301A8C4F38341475C04F42A
:10147000803070B130484068C0F340401DF80080B3
:1014800004F4803040B12D48B0FBF8F000FB07F5C4
:1014900002E02B4807FB00F52748406800F4800075
:1014A000B0F5800F01D1A94603E068000321B0FB2D
:1014B000F1F932E02048046A04F44070B0F5807F0E
:1014C00005D104F0020010B14FF4004918E004F413
:1014D0004070B0F5007F07D11748406A00F0020065
:1014E00010B149F640490BE004F44070B0F5407F7C
:1014F00006D11148006800F4003008B14FF22449C9
:101500000BE000F093F90C494968C1F38131491CA3
:101510004900B0FBF1F900E000BF00BF484605B04C
:10152000BDE8F08302030405060708090A0B0C0D49
:101530000E0F1010010200000010024000127A008D
:1015400000093D00F8B5044600260025207800F08B
:10155000010000286BD000274348C06900F080508C
:1015600070B900BF4048C06940F080503E49C86132
:101570000846C06900F08050009000BF00BF0127FE
:101580003A48006800F48070B0B93848006840F408
:10159000807036490860FFF76DFE064606E0FFF7EB
:1015A00069FE801B642801D90320F8BD2F4800681C
:1015B00000F480700028F2D02B48006A00F44075D7
:1015C0002DB3A08800F44070A84220D02648006ABD
:1015D00020F4407501202649086000200860224858
:1015E000056205F0010090B1FFF744FE064608E0F1
:1015F000FFF740FE801B41F28831884201D9032069
:10160000D3E71948006A00F002000028F0D016481D
:10161000006A20F440706168084313490862012F92
:1016200004D10846C06920F08050C86100BF20780E
:1016300000F00200022807D10B48406820F4404027
:10164000A168084308494860207800F0100010287D
:1016500007D10548406820F48000E168084302494A
:1016600048600020A1E70000001002400070004028
:101670004004424270B504460D460CB9012070BDCD
:101680005A48006800F00700A8420ED25748006888
:1016900020F007002843554908600846006800F01C
:1016A0000700A84201D00120E9E7207800F00200FD
:1016B00002281DD1207800F00400042805D14C48F0
:1016C000406840F4E0604A494860207800F0080033
:1016D000082805D14648406840F4605044494860B5
:1016E0004348406820F0F000A16808434049486042
:1016F000207800F0010078B36068012806D13C48EA
:10170000006800F4003090B90120B8E76068022852
:1017100006D13748006800F0007040B90120AEE7FC
:101720003348006800F0020008B90120A7E73048FC
:10173000406820F00300616808432D494860FFF7C6
:1017400099FD064609E0FFF795FD801B41F28831BF
:10175000884202D9032092E707E02548406800F05C
:101760000C006168B0EB810FEDD12048006800F0FB
:101770000700A8420ED91D48006820F00700284342
:101780001A4908600846006800F00700A84201D026
:10179000012074E7207800F00400042807D11448E1
:1017A000406820F4E060E16808431149486020780F
:1017B00000F00800082808D10D48406820F4605067
:1017C000216940EAC1000A49486000F03FF8084931
:1017D0004968C1F30311074A515CC84006490860D3
:1017E00006480068FFF76CFD002048E70020024033
:1017F000001002407435000818000020100000207E
:1018000001480068704700001800002000B5FFF78D
:10181000F7FF04494968C1F30221034A515CC840FB
:1018200000BD0000001002408435000800B5FFF73D
:10183000E7FF04494968C1F3C221034A515CC8402B
:1018400000BD00000010024084350008F0B585B0EE
:101850000FF26C0C9CE8E01001A8A0E8E0101CA5B9
:101860002D68009500210022002300240020194D3E
:10187000696801F00C05F5B1042D02D0082D19D1CD
:1018800001E0154819E001ADC1F38346AC5D01F4F8
:10189000803555B10F4D6D68C5F340451DF80520E5
:1018A0000D4D6543B5FBF2F302E00C4D04FB05F36F
:1018B000184602E000BF084800BF00BF05B0F0BDF9
:1018C00002030405060708090A0B0C0D0E0F101081
:1018D000010200000010024000127A0000093D00E1
:1018E000F8B504460CB90120F8BD207800F00100DD
:1018F000002878D0F848406800F00C0004280CD08C
:10190000F548406800F00C00082811D1F248406802
:1019100000F48030B0F5803F0AD1EF48006800F451
:10192000003000285FD0606800285CD10120DBE730
:1019300000BF6068B0F5803F06D1E748006840F41A
:101940008030E549086028E0606858B9E2480068DE
:1019500020F48030E04908600846006820F48020C8
:1019600008601AE06068B0F5A02F0BD1DA48006873
:1019700040F48020D84908600846006840F4803070
:1019800008600AE0D448006820F48030D24908603A
:101990000846006820F48020086000BF606888B1B5
:1019A000FFF768FC054606E0FFF764FC401B64286F
:1019B00001D9032098E7C848006800F400300028E7
:1019C000F2D010E0FFF756FC054606E0FFF752FCA8
:1019D000401B642801D9032086E7BF48006800F453
:1019E00000300028F2D1207800F00200022857D100
:1019F000B948406800F00C0050B1B748406800F0AA
:101A00000C00082818D1B448406800F4803098B918
:101A1000B148006800F0020020B12069012801D01F
:101A2000012061E7AC48006820F0F800616940EAF5
:101A3000C100A949086033E02069E8B10120A74945
:101A40000860FFF717FC054606E0FFF713FC401B94
:101A5000022801D9032047E79F48006800F00200F0
:101A60000028F2D09C48006820F0F800616940EA44
:101A7000C1009949086013E0002098490860FFF709
:101A8000F9FB054606E0FFF7F5FB401B022801D9EC
:101A9000032029E79048006800F002000028F2D1F6
:101AA000207800F0080008282DD1A069B8B10120E5
:101AB0008B490860FFF7DEFB054606E0FFF7DAFB1F
:101AC000401B022801D903200EE78348406A00F03A
:101AD00002000028F2D0012000F090FF13E0002067
:101AE0007F490860FFF7C6FB054606E0FFF7C2FB2B
:101AF000401B022801D90320F6E67748406A00F02F
:101B000002000028F2D1207800F00400042873D1EC
:101B100000277148C06900F0805070B900BF6E485E
:101B2000C06940F080506C49C8610846C06900F047
:101B30008050009000BF00BF01276A48006800F491
:101B40008070B0B96748006840F4807065490860EB
:101B5000FFF790FB054606E0FFF78CFB401B64286F
:101B600001D90320C0E65F48006800F480700028B7
:101B7000F2D000BFE068012806D15748006A40F063
:101B800001005549086227E0E06858B95248006AE8
:101B900020F00100504908620846006A20F0040065
:101BA000086219E0E06805280BD14B48006A40F054
:101BB0000400494908620846006A40F001000862D2
:101BC0000AE04548006A20F00100434908620846DF
:101BD000006A20F00400086200BFE068A0B1FFF7CF
:101BE00049FB054609E0FFF745FB401B41F2883100
:101BF000884202D9032077E622E03748006A00F0E5
:101C000002000028EFD012E0FFF734FB054608E0A1
:101C1000FFF730FB401B41F28831884201D9032095
:101C200062E62D48006A00F002000028F0D1012F82
:101C300005D12948C06920F080502749C86100BFFC
:101C4000E069C8B32448406800F00C00082860D060
:101C5000E069022848D1002020490866FFF70AFB06
:101C6000054606E0FFF706FB401B022801D90320CA
:101C70003AE61948006800F000700028F2D1206AA6
:101C8000B0F5803F07D11448406820F40030A168C7
:101C9000084311494860D4E9080108430E494968DE
:101CA00021F4741108430C49486001200B4908666F
:101CB000FFF7E0FA054607E03DE0FFF7DBFA401BDF
:101CC000022801D903200FE60348006800F00070E5
:101CD0000028F2D02FE00000001002400000424235
:101CE0008004424200700040002014490866FFF75B
:101CF000C1FA054606E0FFF7BDFA401B022801D9EC
:101D00000320F1E50E48006800F000700028F2D1D1
:101D100011E0E069012800D1E6E50948466806F4CB
:101D20008031206A814204D106F47011606A8142D8
:101D300001D00120D8E50020D6E500000000424295
:101D40000010024070B504462546681EB0F1807F41
:101D500001D301200FE0681E4FF0E02148610F2100
:101D60004FF0FF3001F01CFA00204FF0E0218861B5
:101D700007200861002070BD7047704730B50246EB
:101D80000B4600BF92F83C00012801D1022030BD73
:101D9000012082F83C0000BF022082F83D0010685C
:101DA00044681068816824F070041868044310685F
:101DB00044600E4D1068A84207D01068B0F1804F03
:101DC00003D00B4D1068A84205D121F0800158685E
:101DD000014310688160012082F83D0000BF0020AF
:101DE00082F83C0000BF00BFD1E70000002C01409A
:101DF0000004004010B504460CB9012010BD94F851
:101E00003D0028B9002084F83C00204600F026F868
:101E1000022084F83D00211D206800F0FBFE012017
:101E200084F8460000BF84F83E0001213F200155A0
:101E3000402001554120015500BF00BF012084F81A
:101E4000420043200155442001554520015500BF63
:101E5000012084F83D000020D0E7000038B504469A
:101E600016492068884216D100BF1548806940F4A1
:101E70000060134988610846806900F400600090A2
:101E800000BF00BF012211461920FFF77DFA19207B
:101E9000FFF76AFA11E02068B0F1804F0DD100BF62
:101EA0000748C06940F001000549C8610846C0699B
:101EB00000F00100009000BF00BF38BD002C0140C1
:101EC00000100240014691F83D00012801D0012098
:101ED0007047022081F83D00104B0868984207D0F7
:101EE0000868B0F1804F03D00D4B086898420CD1C0
:101EF0000868806800F00702062A0CD008680068AD
:101F000040F001000B68186005E00868006840F0C8
:101F100001000B6818600020DAE70000002C014087
:101F200000040040014691F83D00012801D0012045
:101F30007047022081F83D000868C06840F0010049
:101F40000B68D860104B0868984207D00868B0F159
:101F5000804F03D00D4B086898420CD10868806808
:101F600000F00702062A0CD00868006840F0010063
:101F70000B68186005E00868006840F001000B6815
:101F800018600020D4E70000002C0140000400404D
:101F9000014600BF0868006A41F21112104050B9B2
:101FA0000868006A9210104028B90868006820F09C
:101FB00001000A68106000BF012081F83D00002088
:101FC00070472DE9F04104460D4600BF94F83C00EF
:101FD000012802D10220BDE8F081012084F83C00F4
:101FE00000BF022084F83D002068866826F077064E
:101FF00026F47F46206886602868502833D00CDCA1
:10200000202850D004DC00284BD0102851D149E0C2
:10201000302849D040284CD139E060282DD0702894
:1020200007D0B0F5805F03D0B0F5005F41D10DE07F
:1020300040E0D5E902136A68206800F01DFE2068C0
:10204000866846F077062068866033E0D5E902139B
:102050006A68206800F010FE2068806840F48040C4
:102060002168886026E0EA686968206800F018FE48
:102070005021206800F00BFE1CE0EA6869682068C7
:1020800000F021FE6021206800F001FE12E0EA6805
:102090006968206800F004FE4021206800F0F7FD28
:1020A00008E000BF00BF00BF2968206800F0EFFD16
:1020B00000E000BF00BF012084F83D0000BF002009
:1020C00084F83C0000BF00BF85E7704710B50446A8
:1020D00020680069C0F34000D8B12068C068C0F330
:1020E0004000B0B16FF00200216808610120207744
:1020F0002068806900F0030018B12046FFF7E5FF73
:1021000005E0204600F0ADF8204600F0ABF80020D6
:10211000207720680069C0F38000D8B12068C068CB
:10212000C0F38000B0B16FF00400216808610220A4
:1021300020772068806900F4407018B12046FFF7CE
:10214000C4FF05E0204600F08CF8204600F08AF835
:102150000020207720680069C0F3C000D8B1206853
:10216000C068C0F3C000B0B16FF00800216808611A
:10217000042020772068C06900F0030018B12046D1
:10218000FFF7A3FF05E0204600F06BF8204600F0C3
:1021900069F80020207720680069C0F30010D8B1EA
:1021A0002068C068C0F30010B0B16FF01000216863
:1021B0000861082020772068C06900F4407018B1D9
:1021C0002046FFF782FF05E0204600F04AF820464F
:1021D00000F048F8002020772068006900F0010036
:1021E00058B12068C06800F0010030B16FF0010004
:1021F00021680861204600F036F820680069C0F3C5
:10220000C01058B12068C068C0F3C01030B16FF082
:102210008000216808612046FFF7AEFD2068006954
:10222000C0F3801058B12068C068C0F3801030B18E
:102230006FF0400021680861204600F015F8206822
:102240000069C0F3401058B12068C068C0F3401066
:1022500030B16FF02000216808612046FFF78DFD46
:1022600010BD704770477047704770477047000057
:102270002DE9F84F0446206805682068C668206884
:1022800047694FF00009CA4605F00F09B9F1000F80
:102290000AD105F0200038B106F0200020B1204618
:1022A00000F05AFDBDE8F88FB9F1000F71D007F0CA
:1022B000010018B906F4907000286AD005F00100FA
:1022C00030B106F4807018B1206C40F00100206439
:1022D00005F0040030B107F0010018B1206C40F0A7
:1022E0000200206405F0020030B107F0010018B1CF
:1022F000206C40F00400206405F0080048B106F0AE
:10230000200010B907F0010018B1206C40F008005F
:102310002064206C68B305F0200028B106F020008E
:1023200010B1204600F018FD20684069C0F3801A03
:10233000206C00F0080010B9BAF1000F22D020463E
:1023400000F0DFFC2068406900F04000B0B1206878
:10235000406920F0400021684861A06B50B15648A8
:10236000A16B4863A06BFEF785FD10B1A06B416BBC
:1023700088470CE02046FFF779FF08E02046FFF78A
:1023800075FF04E02046FFF771FF0020206489E715
:10239000FFE7206B012878D105F01000002874D0E9
:1023A00006F01000002870D000BF002000902068C8
:1023B0000068009020684068009000BF00BF20685F
:1023C000406900F04000C0B3A06B006840681FFA8D
:1023D00080F8B8F1000F2FD0A08D40452CDDA4F877
:1023E0002E80A06B806920281FD02068C06820F450
:1023F00080702168C8602068406920F00100216871
:1024000048612068406920F0400021684861202030
:1024100084F83E00002020632068C06820F010008F
:102420002168C860A06BFEF7F9FCA08DE28D801AD0
:1024300081B22046FFF719FF34E7FFE7A08DE18D59
:10244000401A1FFA80F8E08DE8B1B8F1000F1AD0F9
:102450002068C06820F490702168C86020684069D6
:1024600020F0010021684861202084F83E0000200F
:1024700020632068C06820F010002168C8604146D1
:102480002046FFF7F2FE0DE7FFE705F0800030B1D0
:1024900006F0800018B1204600F071FD02E705F05B
:1024A000400030B106F0400018B1204600F044FC76
:1024B000F8E600BFF6E60000EF2C000810B5044671
:1024C0000CB9012010BDA06900B100E000BF94F874
:1024D0003D0028B9002084F83C00204600F028F890
:1024E000242084F83D002068C06820F40050216852
:1024F000C860204600F0A2FC2068006920F49040EB
:10250000216808612068406920F02A00216848613C
:102510002068C06840F400502168C8600020206432
:10252000202084F83D0084F83E000020CAE7000027
:1025300010B586B0044600200290039004900590E8
:102540003B492068884237D100BF3A48806940F44F
:102550008040384988610846806900F480400190D5
:1025600000BF00BF00BF0846806940F004008861DA
:102570000846806900F00400019000BF00BF4815C4
:102580000290022003900320059002A92A48FEF73A
:10259000DDFC4FF48060029000200390049002A9BB
:1025A0002548FEF7D3FC012211462520FEF7ECFE5C
:1025B0002520FEF7D9FE39E020492068884235D130
:1025C00000BF1C48C06940F400301A49C861084681
:1025D000C06900F40030019000BF00BF00BF084692
:1025E000806940F0040088610846806900F00400BA
:1025F000019000BF00BF042002900220039003203E
:10260000059002A90C48FEF7A1FC082002900020CA
:102610000390049002A90848FEF798FC0122114695
:102620002620FEF7B1FE2620FEF79EFE06B010BD66
:102630000038014000100240000801400044004002
:1026400070B504460D46164694F83E00202816D173
:1026500005B10EB9012070BD00BF94F83C000128FF
:1026600001D10220F7E7012084F83C0000BF0020E0
:10267000206332462946204600F05EFCEBE702204C
:10268000E9E770472DE9F84F04460E46174699468C
:102690004FF0000A94F83D0020285AD106B117B92E
:1026A0000120BDE8F88F00BF94F83C00012801D15B
:1026B0000220F6E7012084F83C0000BF00202064DF
:1026C000212084F83D00FEF7D5FD8246A784E784EB
:1026D000A068B0F5805F04D1206910B90025B0462C
:1026E00002E035464FF0000800BF002084F83C00AF
:1026F00000BF1BE05346002280212046CDF8009009
:1027000000F06DFC08B10320CBE745B9B8F8000034
:10271000C0F308002168486008F1020803E0287847
:10272000216848606D1CE08C401EE084E08C00282D
:10273000E0D15346002240212046CDF8009000F021
:102740004EFC08B10320ACE7202084F83D000020B7
:10275000A7E70220A5E7704700BFFEE730B50246B5
:1027600000234FF6FF7008E012F8014B4440E3B23B
:102770000012044C34F8134060400C1EA1F101011A
:10278000F2D130BD743300080EB5002000900190E6
:102790000290194819490860811518488160002184
:1027A00001730121017581614FF46021C161002035
:1027B00012494860022111480161FEF7DFF808B1B3
:1027C000FDF799FF00200090012001900020029069
:1027D00069460A48FEF71EF808B1FDF78CFF012094
:1027E00000900220019069460448FEF713F808B1F2
:1027F000FDF781FF0EBD0000002401402C000020E9
:1028000000B585B00020019002900390049000BFB5
:102810002148806940F020001F498861084680698E
:1028200000F02000009000BF00BF00BF0846806994
:1028300040F0040088610846806900F004000090C0
:1028400000BF00BF00BF0846806940F008008861F3
:102850000846806900F00800009000BF00BF002219
:1028600003210E48FEF700FD032001900120029095
:1028700003900320049001A90848FEF767FB4FF47A
:1028800000600190002002900220039001A90348FB
:10289000FEF75CFB05B000BD00100240000C0140DB
:1028A00000B587B000200390049005900690019039
:1028B000029016481649086041F61F404860002102
:1028C0001348816041F28731C1600021016141619B
:1028D00080218161FFF78EFA08B1FDF70CFF4FF4FC
:1028E0008050039003A90A48FFF76BFB08B1FDF77E
:1028F00002FF00200190029001A90548FFF73EFA6F
:1029000008B1FDF7F8FE07B000BD0000002C014043
:102910005C00002000B587B0002003900490059073
:102920000690019002904FF08040144908604720C3
:1029300048600021114881604FF6FF71C16000219D
:1029400001618161FFF756FA08B1FDF7D4FE4FF43B
:102950008050039003A90948FFF733FB08B1FDF746
:10296000CAFE00200190029001A90448FFF706FA70
:1029700008B1FDF7C0FE07B000BD0000A4000020B4
:1029800010B50B480B4908604FF416504860002101
:1029900008488160C16001610C21416100218161B1
:1029A000C161FFF78BFD08B1FDF7A5FE10BD00006A
:1029B00000380140EC00002010B50B480B490860BE
:1029C0004FF4E1304860002108488160C160016136
:1029D0000C21416100218161C161FFF76FFD08B1E8
:1029E000FDF789FE10BD00000044004030010020CA
:1029F00000BFFEE700BFFEE77047000008B50849CA
:102A00000968C9084FF47A72B1FBF2F141430091B1
:102A100000BF00BF00994A1E00920029F9D108BDED
:102A20001800002070B50025002424E000BF02211A
:102A30001348FEF711FC0028F9D0282000F0D4FB41
:102A400002210F48FEF708FC01280DD100BF02212A
:102A50000B48FEF701FC0128F9D0C4F10701012061
:102A60008840C0B2054304E0C4F10701012088405A
:102A70008543601CC4B2082CD8DB284670BD00001A
:102A8000000C014010B50446FDF70CFD2648006817
:102A900020F0F000244908600846006840F08000FB
:102AA000086002212048FEF7D7FB00283AD100BF7A
:102AB00002211D48FEF7D0FB0028F9D000BF0221FB
:102AC0001948FEF7C9FB0128F9D0FFF7ABFFA07149
:102AD000FFF7A8FFE071FFF7A5FF2072FFF7A2FF45
:102AE0006072FFF79FFF20730F48006820F0F0002E
:102AF0000D4908600846006840F030000860012277
:102B000002210948FEF7B0FBA079E1790844217A57
:102B10000844617A0844217B884201D1002010BD1D
:102B20000120FCE70120FAE7000C0140704710B5D6
:102B3000FEF7A6FB10BD00B593B0282109A8FDF74C
:102B4000FAFA142104A8FDF7F6FA0020009001908B
:102B5000029003900120099000040A9000200B903D
:102B600001200D9002201090C10311914FF4E0114B
:102B7000129109A8FEF7B4FE08B1FDF7BCFD0F20C5
:102B8000049002200590002006904FF4806007908A
:102B900000200890022104A8FEF76CFD08B1FDF7A3
:102BA000AAFD02200090800302906846FEF7CAFC4E
:102BB00008B1FDF7A0FD13B000BD704710B5FF23AD
:102BC00008220F490F48FFF75DFD0F4800781E28C7
:102BD00003DB00200C49087004E00B480078401C1F
:102BE00009490870084800781E2804DB12220749AA
:102BF000AA20FDF7F9FB0648FFF768FA10BD0000B0
:102C000000000020EC0000200A0000201C00002032
:102C10005C00002010B50268154B984205D0B0F159
:102C2000804F02D0134B984203D122F070024B68C0
:102C30001A430F4B984205D0B0F1804F02D00D4B94
:102C4000984203D122F44072CB681A4322F08003E9
:102C50004C6943EA040202608B68C3620B688362BA
:102C6000034B984201D10B6903630123436110BDFB
:102C7000002C01400004004030B50C46816821F46E
:102C80007F4142EA032525432943816030BD0A463E
:102C9000816821F0700142F0070319438160704799
:102CA00030B50B461446026A056A25F00105056237
:102CB000816921F0F00141EA041122F00A021A436D
:102CC0008161026230BD30B50B461446056A25F0BD
:102CD000100505628169026A21F4704141EA0431FC
:102CE00022F0A00242EA03128161026230BD70B597
:102CF00005466C6A0020E085E0842046FFF7B6FABE
:102D000070BD0168C96821F490710268D1600168E2
:102D1000496921F0010102685161016B012905D166
:102D20000168C96821F010010268D160202180F893
:102D30003E1000210163704710B504462068C0684A
:102D400020F040002168C860202084F83D00204623
:102D5000FFF701FD002010BDF8B5044694F83E00D1
:102D6000222869D1A068B0F5805F0CD1206950B9E4
:102D70000025A66A20684068C0F308003080A06A79
:102D8000801CA06215E0A56A0026A068B0F5805FEF
:102D900003D0A06828B9206918B920684068287055
:102DA00004E02068406800F07F002870A06A401CA2
:102DB000A062E08D401E80B2E085A8BB2068C0689C
:102DC00020F020002168C8602068C06820F480706E
:102DD0002168C8602068406920F0010021684861CE
:102DE000202084F83E00206B01281ED100202063A3
:102DF0002068C06820F010002168C8602068006862
:102E000000F0100010280AD100BF002000902068B8
:102E10000068009020684068009000BF00BFA18D4E
:102E20002046FFF722FA03E004E02046FFF729FCE2
:102E30000020F8BD0020FCE70220FAE770B5044648
:102E40002168096921F44051E26811432268116147
:102E50002269A1681143626941EA02052168C968D3
:102E600041F20C62914329432268D160216849698B
:102E700021F44071A2691143226851612D4A2168F1
:102E8000914202D1FEF7D2FC01E0FEF7BFFC00EB5D
:102E9000C00101EB001162689200B1FBF2F100EB9E
:102EA000C00202EB001263689B00B2FBF3F26423E2
:102EB000B2FBF3F202EBC20303EB0212A1EB8201BD
:102EC000322202EB01116422B1FBF2F101F0F001B8
:102ED00000EBC00202EB001263689B00B2FBF3F24E
:102EE0006423B2FBF3F201EB021200EBC00101EB31
:102EF000001163689B00B1FBF3F100EBC00303EB2F
:102F000000136668B600B3FBF6F36426B3FBF6F372
:102F100003EBC30606EB0313A1EB8301322303EBA0
:102F200001116423B1FBF3F101F00F011144226898
:102F3000916070BD0038014010B5034699629A85D2
:102F4000DA8500201864222083F83E0000BF0020AC
:102F500083F83C0000BF1868C06840F480701C68AB
:102F6000E0601868406940F001001C686061186802
:102F7000C06840F020001C68E060002010BD0146E1
:102F800091F83D00212828D18868B0F5805F0BD1E9
:102F9000086948B90A6A1088C0F308000B685860CD
:102FA000086A801C086205E00B6A581C08621878E1
:102FB0000B685860C88C401E80B2C88458B9086835
:102FC000C06820F080000B68D8600868C06840F0D6
:102FD00040000B68D860002070470220FCE72DE914
:102FE000F04104460D4617469846069E21E0701CA7
:102FF000F8B12EB1FEF73EF9A0EB0800B04218D9A7
:103000002068C06820F4D0702168C86020684069DA
:1030100020F0010021684861202084F83D0084F8F8
:103020003E0000BF002084F83C0000BF0320BDE844
:10303000F081206800682840A84201D1012000E00A
:103040000020B842D3D00020F1E7000070B5474817
:1030500000680068C0F3401000287ED04448006833
:10306000C4B24448008868B9012C07D1424841499C
:103070000988445401203F4908806EE000203D4902
:1030800008806AE03B48008801280DD1032C07D155
:1030900039483849098844540220364908805CE0A0
:1030A00000203449088058E03248008802280DD1B9
:1030B000022C07D130482F490988445403202D4958
:1030C00008804AE000202B49088046E02948008813
:1030D000032807D128482749098844540420254952
:1030E00008803AE023480088042807D12248214973
:1030F0000988445405201F4908802EE01D48008897
:10310000052807D11C481B49098844540620194941
:10311000088022E01748008806281ED11648154965
:10312000098844540521FFF719FB05461248114947
:103130000988405CB0EB252F0BD10E480088401E5B
:103140000D49085CE9B2884203D10720094908808B
:1031500002E000200749088000BF0448FFF788F814
:10316000012205490148FFF76BFA70BDEC00002011
:1031700004380140080000207401002010B5024806
:10318000FFF776F810BD00003001002000BFFEE719
:1031900002480068C0F30220704700000CED00E018
:1031A00010B5002804DB0A07130E054A135406E085
:1031B0000A07140E034A00F00F031B1FD45410BD5E
:1031C00000E400E018ED00E002E008C8121F08C1AA
:1031D000002AFAD170477047002001E001C1121F98
:1031E000002AFBD17047000010B5044600200849B2
:1031F000096848620648FEF765FE00BF044800689B
:10320000406AA042FAD30248FEF7C2FE10BD000099
:10321000A400002070B504460D462846FDF70BF8C3
:10322000A07007492846FCF791FF0646FDF703F812
:10323000642190FBF1F201FB1200E07070BD000010
:103240000000C842002400BF00BFFEF725F8FFF7CA
:1032500072FCFFF7D5FAFFF793FBFFF7ADFBFFF723
:1032600093FAFFF757FBFFF71BFB3A48FDF746FAC7
:103270003948FEF757FE012238493948FFF7E0F98F
:1032800067E03848FFF7FEFB3248FDF70FFD3221BB
:103290003048FDF74BFC2F48FDF76CFB6421484399
:1032A000C0F307302F4988722A48FDF7FFFC32210E
:1032B0002848FDF73BFC2748FDF75CFB8046FCF700
:1032C000B5FF07462849FCF741FF06464FF08B4102
:1032D000FCF76EFF05461F48FDF780FD4FF47A703E
:1032E000FDF720FE29461F48FFF794FF4FF40061C9
:1032F0001E48FDF7B1FF08B1012000E00020194988
:10330000C872FDF7EFF848B9FDF732F90446C4F387
:1033100007101449087004F00F0048701448008822
:10332000072816D100200D4909790C4AD27841EAC4
:1033300002200A2190FBF1F10A4A11710A2190FB47
:10334000F1F201FB1201074A51710021084A118074
:1033500000BF96E72C0000205C00002074010020D4
:10336000EC0000201C00002033335340000C0140CF
:10337000080000200000C1C081C1400101C3C0039A
:10338000800241C201C6C006800741C70005C1C511
:1033900081C4400401CCC00C800D41CD000FC1CFD1
:1033A00081CE400E000AC1CA81CB400B01C9C009C1
:1033B000800841C801D8C018801941D9001BC1DB61
:1033C00081DA401A001EC1DE81DF401F01DDC01D11
:1033D000801C41DC0014C1D481D5401501D7C01731
:1033E000801641D601D2C012801341D30011C1D141
:1033F00081D0401001F0C030803141F10033C1F381
:1034000081F240320036C1F681F7403701F5C03510
:10341000803441F4003CC1FC81FD403D01FFC03FD0
:10342000803E41FE01FAC03A803B41FB0039C1F9C0
:1034300081F840380028C1E881E9402901EBC02B20
:10344000802A41EA01EEC02E802F41EF002DC1ED10
:1034500081EC402C01E4C024802541E50027C1E730
:1034600081E640260022C1E281E3402301E1C02140
:10347000802041E001A0C060806141A10063C1A340
:1034800081A240620066C1A681A7406701A5C06510
:10349000806441A4006CC1AC81AD406D01AFC06FD0
:1034A000806E41AE01AAC06A806B41AB0069C1A9C0
:1034B00081A840680078C1B881B9407901BBC07B60
:1034C000807A41BA01BEC07E807F41BF007DC1BD10
:1034D00081BC407C01B4C074807541B50077C1B730
:1034E00081B640760072C1B281B3407301B1C07140
:1034F000807041B00050C190819140510193C05300
:10350000805241920196C056805741970055C1950F
:1035100081944054019CC05C805D419D005FC19FCF
:10352000819E405E005AC19A819B405B0199C059BF
:10353000805841980188C04880494189004BC18B1F
:10354000818A404A004EC18E818F404F018DC04D0F
:10355000804C418C0044C184818540450187C0472F
:10356000804641860182C042804341830041C1813F
:1035700081804040000000000000000001020304C0
:10358000060708090000000001020304AC3500082A
:10359000000000201C000000C8310008C8350008E9
:1035A0001C00002024060000D83100080103000898
:1035B000000105C80000000000000000100000002D
:0835C000010000000024F400EA
:04000005080000ED02
:00000001FF
